{
  "abi": [
    {
      "inputs": [
        {
          "internalType": "address",
          "name": "_trustedForwarder",
          "type": "address"
        }
      ],
      "stateMutability": "nonpayable",
      "type": "constructor"
    },
    {
      "anonymous": false,
      "inputs": [
        {
          "indexed": true,
          "internalType": "address",
          "name": "_addr",
          "type": "address"
        },
        {
          "indexed": false,
          "internalType": "string",
          "name": "_msg",
          "type": "string"
        }
      ],
      "name": "checkInEvent",
      "type": "event"
    },
    {
      "inputs": [
        {
          "internalType": "address",
          "name": "_walletAddress",
          "type": "address"
        }
      ],
      "name": "addWalletAddress",
      "outputs": [],
      "stateMutability": "nonpayable",
      "type": "function"
    },
    {
      "inputs": [
        {
          "internalType": "address",
          "name": "",
          "type": "address"
        }
      ],
      "name": "isAuthorized",
      "outputs": [
        {
          "internalType": "bool",
          "name": "",
          "type": "bool"
        }
      ],
      "stateMutability": "view",
      "type": "function"
    },
    {
      "inputs": [
        {
          "internalType": "address",
          "name": "forwarder",
          "type": "address"
        }
      ],
      "name": "isTrustedForwarder",
      "outputs": [
        {
          "internalType": "bool",
          "name": "",
          "type": "bool"
        }
      ],
      "stateMutability": "view",
      "type": "function"
    },
    {
      "inputs": [],
      "name": "last",
      "outputs": [
        {
          "internalType": "address",
          "name": "",
          "type": "address"
        }
      ],
      "stateMutability": "view",
      "type": "function"
    },
    {
      "inputs": [
        {
          "internalType": "uint256",
          "name": "",
          "type": "uint256"
        }
      ],
      "name": "walletAddresses",
      "outputs": [
        {
          "internalType": "address",
          "name": "",
          "type": "address"
        }
      ],
      "stateMutability": "view",
      "type": "function"
    }
  ],
  "bytecode": {
    "object": "0x60a060405234801561001057600080fd5b5060405161044238038061044283398101604081905261002f91610040565b6001600160a01b0316608052610070565b60006020828403121561005257600080fd5b81516001600160a01b038116811461006957600080fd5b9392505050565b6080516103b16100916000396000818160af01526102f201526103b16000f3fe608060405234801561001057600080fd5b50600436106100575760003560e01c80631469d5d41461005c57806347799da81461008c578063572b6c051461009f578063a109a089146100ef578063fe9fbb8014610104575b600080fd5b61006f61006a366004610332565b610127565b6040516001600160a01b0390911681526020015b60405180910390f35b60005461006f906001600160a01b031681565b6100df6100ad36600461034b565b7f00000000000000000000000000000000000000000000000000000000000000006001600160a01b0390811691161490565b6040519015158152602001610083565b6101026100fd36600461034b565b610151565b005b6100df61011236600461034b565b60026020526000908152604090205460ff1681565b6001818154811061013757600080fd5b6000918252602090912001546001600160a01b0316905081565b600061015b6102ee565b6001600160a01b0316036101a75760405162461bcd60e51b815260206004820152600e60248201526d24b73b30b634b21039b2b73232b960911b60448201526064015b60405180910390fd5b6001600160a01b03811660009081526002602052604090205460ff16156102105760405162461bcd60e51b815260206004820152601c60248201527f57616c6c6574206164647265737320616c726561647920616464656400000000604482015260640161019e565b6001805480820182557fb10e2d527612073b26eecdfd717e6a320cf44b4afac2b0732d9fcbe2b7fa0cf60180546001600160a01b0319166001600160a01b0384169081179091556000908152600260205260409020805460ff191690911790556102786102ee565b600080546001600160a01b03929092166001600160a01b0319909216821790556040517f7788ba74aa965136c2654c8efe973913de85415936645c5759d2b8f48cfa3ea3906102e390602080825260089082015267737563636573732160c01b604082015260600190565b60405180910390a250565b60007f00000000000000000000000000000000000000000000000000000000000000006001600160a01b0316330361032d575060131936013560601c90565b503390565b60006020828403121561034457600080fd5b5035919050565b60006020828403121561035d57600080fd5b81356001600160a01b038116811461037457600080fd5b939250505056fea26469706673582212201a8126b644461382f3d86b59d7dc6d1d033096f9e77bca3a8bc1e4d043c7f48664736f6c63430008130033",
    "linkReferences": {}
  },
  "methodIdentifiers": {
    "addWalletAddress(address)": "a109a089",
    "isAuthorized(address)": "fe9fbb80",
    "isTrustedForwarder(address)": "572b6c05",
    "last()": "47799da8",
    "walletAddresses(uint256)": "1469d5d4"
  },
  "id": 2
}