{
  "abi": [
    {
      "inputs": [
        {
          "internalType": "address",
          "name": "_trustedForwarder",
          "type": "address"
        }
      ],
      "stateMutability": "nonpayable",
      "type": "constructor"
    },
    {
      "anonymous": false,
      "inputs": [
        {
          "indexed": true,
          "internalType": "address",
          "name": "_addr",
          "type": "address"
        },
        {
          "indexed": false,
          "internalType": "string",
          "name": "_msg",
          "type": "string"
        }
      ],
      "name": "checkInEvent",
      "type": "event"
    },
    {
      "inputs": [
        {
          "internalType": "address",
          "name": "_walletAddress",
          "type": "address"
        }
      ],
      "name": "addWalletAddress",
      "outputs": [],
      "stateMutability": "nonpayable",
      "type": "function"
    },
    {
      "inputs": [],
      "name": "getWalletList",
      "outputs": [
        {
          "internalType": "address[]",
          "name": "",
          "type": "address[]"
        }
      ],
      "stateMutability": "view",
      "type": "function"
    },
    {
      "inputs": [
        {
          "internalType": "address",
          "name": "",
          "type": "address"
        }
      ],
      "name": "isAuthorized",
      "outputs": [
        {
          "internalType": "bool",
          "name": "",
          "type": "bool"
        }
      ],
      "stateMutability": "view",
      "type": "function"
    },
    {
      "inputs": [
        {
          "internalType": "address",
          "name": "_walletAddress",
          "type": "address"
        }
      ],
      "name": "isCheckIn",
      "outputs": [
        {
          "internalType": "bool",
          "name": "",
          "type": "bool"
        }
      ],
      "stateMutability": "view",
      "type": "function"
    },
    {
      "inputs": [
        {
          "internalType": "address",
          "name": "forwarder",
          "type": "address"
        }
      ],
      "name": "isTrustedForwarder",
      "outputs": [
        {
          "internalType": "bool",
          "name": "",
          "type": "bool"
        }
      ],
      "stateMutability": "view",
      "type": "function"
    },
    {
      "inputs": [],
      "name": "last",
      "outputs": [
        {
          "internalType": "address",
          "name": "",
          "type": "address"
        }
      ],
      "stateMutability": "view",
      "type": "function"
    },
    {
      "inputs": [
        {
          "internalType": "uint256",
          "name": "",
          "type": "uint256"
        }
      ],
      "name": "walletAddresses",
      "outputs": [
        {
          "internalType": "address",
          "name": "",
          "type": "address"
        }
      ],
      "stateMutability": "view",
      "type": "function"
    }
  ],
  "bytecode": {
    "object": "0x60a060405234801561001057600080fd5b5060405161055938038061055983398101604081905261002f91610040565b6001600160a01b0316608052610070565b60006020828403121561005257600080fd5b81516001600160a01b038116811461006957600080fd5b9392505050565b6080516104c76100926000396000818161011101526103bb01526104c76000f3fe608060405234801561001057600080fd5b506004361061007d5760003560e01c8063572b6c051161005b578063572b6c0514610101578063a109a08914610141578063fc9ffe0214610156578063fe9fbb801461016b57600080fd5b80631469d5d4146100825780632b8edba5146100b257806347799da8146100ee575b600080fd5b6100956100903660046103fb565b61018e565b6040516001600160a01b0390911681526020015b60405180910390f35b6100de6100c0366004610414565b6001600160a01b031660009081526002602052604090205460ff1690565b60405190151581526020016100a9565b600054610095906001600160a01b031681565b6100de61010f366004610414565b7f00000000000000000000000000000000000000000000000000000000000000006001600160a01b0390811691161490565b61015461014f366004610414565b6101b8565b005b61015e610355565b6040516100a99190610444565b6100de610179366004610414565b60026020526000908152604090205460ff1681565b6001818154811061019e57600080fd5b6000918252602090912001546001600160a01b0316905081565b60006101c26103b7565b6001600160a01b03160361020e5760405162461bcd60e51b815260206004820152600e60248201526d24b73b30b634b21039b2b73232b960911b60448201526064015b60405180910390fd5b6001600160a01b03811660009081526002602052604090205460ff16156102775760405162461bcd60e51b815260206004820152601c60248201527f57616c6c6574206164647265737320616c7265616479206164646564000000006044820152606401610205565b6001805480820182557fb10e2d527612073b26eecdfd717e6a320cf44b4afac2b0732d9fcbe2b7fa0cf60180546001600160a01b0319166001600160a01b0384169081179091556000908152600260205260409020805460ff191690911790556102df6103b7565b600080546001600160a01b03929092166001600160a01b0319909216821790556040517f7788ba74aa965136c2654c8efe973913de85415936645c5759d2b8f48cfa3ea39061034a90602080825260089082015267737563636573732160c01b604082015260600190565b60405180910390a250565b606060018054806020026020016040519081016040528092919081815260200182805480156103ad57602002820191906000526020600020905b81546001600160a01b0316815260019091019060200180831161038f575b5050505050905090565b60007f00000000000000000000000000000000000000000000000000000000000000006001600160a01b031633036103f6575060131936013560601c90565b503390565b60006020828403121561040d57600080fd5b5035919050565b60006020828403121561042657600080fd5b81356001600160a01b038116811461043d57600080fd5b9392505050565b6020808252825182820181905260009190848201906040850190845b818110156104855783516001600160a01b031683529284019291840191600101610460565b5090969550505050505056fea26469706673582212209cd2f179447b291259b96f57754730862a7899fad40147f92cb8ba99157b5c6f64736f6c63430008130033",
    "linkReferences": {}
  },
  "methodIdentifiers": {
    "addWalletAddress(address)": "a109a089",
    "getWalletList()": "fc9ffe02",
    "isAuthorized(address)": "fe9fbb80",
    "isCheckIn(address)": "2b8edba5",
    "isTrustedForwarder(address)": "572b6c05",
    "last()": "47799da8",
    "walletAddresses(uint256)": "1469d5d4"
  },
  "id": 2
}